:100000000C9462000C948A000C948A000C948A0070
:100010000C948A000C948A000C948A000C948A0038
:100020000C948A000C948A000C948A000C948A0028
:100030000C948A000C948A000C948A000C948A0018
:100040000C94F1020C948A000C94C9040C941005D1
:100050000C948A000C948A000C948A000C948A00F8
:100060000C948A000C948A000000000024002700F1
:100070002A0000000000250028002B0000000000DE
:1000800023002600290004040404040404040202DA
:100090000202020203030303030301020408102007
:1000A0004080010204081020010204081020000012
:1000B0000007000201000003040600000000000029
:1000C00000007E0611241FBECFEFD8E0DEBFCDBFFB
:1000D00011E0A0E0B1E0E0EBFEE002C005900D927F
:1000E000A233B107D9F712E0A2E3B1E001C01D923B
:1000F000A032B107E1F710E0C4ECD0E004C02297D1
:10010000FE010E945207C23CD107C9F70E94CE06E9
:100110000C9456070C940000FF920F931F93CF93FB
:10012000DF938C01F62EC0E0D0E015C08F2D61E08A
:100130000E94210469E170E080E090E00E944503A4
:100140008F2D60E00E94210464EF71E080E090E078
:100150000E9445032196C017D10744F3DF91CF9148
:100160001F910F91FF90089560910001709101011E
:10017000882777FD8095982F0E94450385E10E948E
:10018000D903885B91408937910530F081E090E098
:1001900090936701809366010895EF92FF920F9309
:1001A0001F93CF93DF938091020160E00E942104AE
:1001B0008091040161E00E9421046091000170912E
:1001C0000101882777FD8095982F0E94450384E1DF
:1001D0000E94D9030B974CF08091680190916901BE
:1001E000019690936901809368018CE00E947504E8
:1001F00090936D0180936C01892B49F480916A0181
:1002000090916B01019690936B0180936A01C0E01D
:10021000D0E06091000170910101882777FD809501
:10022000982F0E944503FE01EA5FFE4F80810E94E5
:1002300075048130910529F4FE01EA5CFE4F91833B
:1002400080832296CE30D10521F7C4E1D1E004E4C9
:1002500011E091E0E92EF12C609100017091010113
:10026000882777FD8095982F0E94450388810E94FA
:100270007504892B19F4F801F182E08222960E5F51
:100280001F4FF1E0C032DF0739F78091020161E0D2
:100290000E9421048091040160E00E942104609189
:1002A000000170910101882777FD8095982F0E94A9
:1002B000450384E10E94D903875F93404CF4809109
:1002C000680190916901019690936901809368019A
:1002D0008CE00E94750490936F0180936E010197EA
:1002E00049F480916A0190916B01019690936B01A2
:1002F00080936A01C6E0D1E00EE411E081E0E82ECF
:10030000F12C6091000170910101882777FD8095A3
:10031000982F0E94450388810E947504892B19F447
:10032000F801F182E08222960E5F1F4FF1E0C431A6
:10033000DF0739F7C0E0D0E0609100017091010162
:10034000882777FD8095982F0E944503FE01EC5E7B
:10035000FE4F80810E9475048130910529F4FE01D1
:10036000EA5CFE4F97A386A32296CC30D10521F7F5
:100370002091320130913301E6E3F1E080819181F7
:10038000892B11F02F5F3F4F329681E0E636F80758
:10039000A9F73093330120933201DF91CF911F9160
:1003A0000F91FF90EF90089581E092E00E94D605B2
:1003B000181619060CF09DC081E092E00E94070615
:1003C0009093350180933401C197B9F581E090E0B5
:1003D0006DE070E00E948C008091320190913301B9
:1003E000892B99F48091660190916701892B69F4BA
:1003F0008DE061E00E9421048AE061E00E94210416
:1004000060EA7FE080E090E00EC0609100017091B2
:100410000101882777FD8095982F0E94450362E3AC
:1004200070E080E090E00E9445038DE060E00E9473
:1004300021048AE060E00E942104809134019091BF
:100440003501C29709F055C081E090E06DE070E0A1
:100450000E948C0020E08091320190913301892B21
:1004600009F421E030E08091660190916701892BC9
:1004700009F431E0232330E040E050E080916A014C
:1004800090916B01892B11F441E050E02423352336
:10049000232BB9F08DE061E00E9421048AE061E045
:1004A0000E94210460EA7FE080E090E00E94450322
:1004B0008DE060E00E9421048AE060E00E94210457
:1004C00008956091000170910101882777FD809562
:1004D000982F0E94450362E370E080E090E00E9464
:1004E00045038DE060E00E9421048AE060E00E9404
:1004F00021040895CF93DF938091020161E00E946F
:10050000FB038091020161E00E94210480910401BB
:1005100061E00E94FB038091040161E00E942104DC
:10052000C6E0D1E0888161E00E94FB03888161E040
:100530000E942104888160E00E94FB03229681E0F2
:10054000C431D80779F7C4E1D1E0888161E00E9425
:10055000FB03888161E00E942104888160E00E94A1
:10056000FB03229681E0C032D80779F78CE060E087
:100570000E94FB038CE061E00E9421048DE061E0B9
:100580000E94FB0381E090E06DE070E00E948C002F
:100590008AE061E00E94FB0381E090E06AE070E0A5
:1005A0000E948C000E94CD000E94B4008091020144
:1005B00060E00E94FB038091040160E00E94FB0365
:1005C00081E090E06DE070E00E948C0081E092E0BC
:1005D00040E855E260E070E00E945905DF91CF915C
:1005E00008951F920F920FB60F9211242F933F93ED
:1005F0004F935F936F937F938F939F93AF93BF932B
:1006000020917401309175014091760150917701EC
:1006100070917801DA01C9010296A11DB11D672F01
:100620006A5F6D3730F06D57DA01C9010396A11D7D
:10063000B11D609378018093740190937501A0932C
:100640007601B09377018091700190917101A09132
:100650007201B09173010196A11DB11D80937001CB
:1006600090937101A0937201B0937301BF91AF9108
:100670009F918F917F916F915F914F913F912F91BA
:100680000F900FBE0F901F9018959B01AC017FB784
:10069000F8948091700190917101A0917201B091D4
:1006A000730166B5A89B05C06F3F19F00196A11DA7
:1006B000B11D7FBFBA2FA92F982F8827860F911DB4
:1006C000A11DB11D63E0880F991FAA1FBB1F6A956A
:1006D000D1F7BC012DC0FFB7F894809170019091C3
:1006E0007101A0917201B0917301E6B5A89B05C09C
:1006F000EF3F19F00196A11DB11DFFBFBA2FA92F21
:10070000982F88278E0F911DA11DB11DE3E0880F42
:10071000991FAA1FBB1FEA95D1F7861B970B885E0E
:100720009340C8F2215030404040504068517C4FC7
:10073000211531054105510571F60895789484B568
:10074000826084BD84B5816084BD85B5826085BDCD
:1007500085B5816085BDEEE6F0E0808181608083B3
:10076000E1E8F0E010828081826080838081816096
:100770008083E0E8F0E0808181608083E1EBF0E05D
:10078000808184608083E0EBF0E080818160808301
:10079000EAE7F0E0808184608083808182608083EA
:1007A0008081816080838081806880831092C10015
:1007B0000895982F8E3008F09E50977080912001F8
:1007C0008295880F880F807C892B80937C00809194
:1007D0007A00806480937A0080917A0086FDFCCF55
:1007E0002091780040917900942F80E030E0282B10
:1007F000392BC9010895482F50E0CA0186569F4FF2
:10080000FC0124914A575F4FFA0184918823C1F07B
:10081000E82FF0E0EE0FFF1FE859FF4FA591B491CC
:10082000662341F49FB7F8948C91209582238C9392
:100830009FBF08959FB7F8948C91822B8C939FBF94
:100840000895482F50E0CA0182559F4FFC01249122
:10085000CA0186569F4FFC0194914A575F4FFA0197
:100860003491332309F440C0222351F1233071F035
:10087000243028F42130A1F0223011F514C02630A4
:10088000B1F02730C1F02430D9F404C08091800049
:100890008F7703C0809180008F7D8093800010C08F
:1008A00084B58F7702C084B58F7D84BD09C08091E7
:1008B000B0008F7703C08091B0008F7D8093B0002F
:1008C000E32FF0E0EE0FFF1FEE58FF4FA591B4911C
:1008D0002FB7F894662321F48C919095892302C058
:1008E0008C91892B8C932FBF0895682F70E0CB01DA
:1008F00082559F4FFC012491CB0186569F4FFC01EE
:1009000044916A577F4FFB019491992319F420E099
:1009100030E03CC0222351F1233071F0243028F420
:100920002130A1F0223011F514C02630B1F027306B
:10093000C1F02430D9F404C0809180008F7703C0C7
:10094000809180008F7D8093800010C084B58F7768
:1009500002C084B58F7D84BD09C08091B0008F77BF
:1009600003C08091B0008F7D8093B000892F90E00C
:10097000880F991F84589F4FFC01A591B4918C91C9
:1009800020E030E0842311F021E030E0C901089537
:1009900008951F920F920FB60F9211242F933F9339
:1009A0004F938F939F93EF93FF934091C6002091B5
:1009B000B9013091BA012F5F3F4F2F733070809192
:1009C000BB019091BC012817390759F0E091B9019A
:1009D000F091BA01E758FE4F40833093BA0120935B
:1009E000B901FF91EF919F918F914F913F912F917D
:1009F0000F900FBE0F901F901895E0910D02F0918F
:100A00000E02E05CFF4F8191919120813181821B28
:100A1000930B8F739070892B11F00E94C804089576
:100A20001F920F920FB60F9211242F933F934F9363
:100A30005F936F937F938F939F93AF93BF93EF9346
:100A4000FF932091FD013091FE018091FF01909173
:100A500000022817390731F48091C1008F7D8093FF
:100A6000C10016C0E091FF01F0910002E354FE4F77
:100A700040818091FF0190910002019660E470E056
:100A80000E940707909300028093FF014093C600E5
:100A9000FF91EF91BF91AF919F918F917F916F9156
:100AA0005F914F913F912F910F900FBE0F901F902C
:100AB0001895AF92BF92DF92EF92FF920F931F9320
:100AC000CF93DF93EC017A018B01DD24D39491E085
:100AD000A92EB12CEC89FD89DD2069F0C5010E8CB1
:100AE00002C0880F991F0A94E2F7808360E874E8D7
:100AF0008EE190E005C0108260E472E48FE090E047
:100B0000A80197010E941A072150304040405040F0
:100B1000569547953795279580E12030380720F086
:100B2000DD2011F0DD24D6CFE889F9893083EA8908
:100B3000FB892083EE89FF89408121E030E0C901F3
:100B40000A8C02C0880F991F0A94E2F7482B408351
:100B5000EE89FF894081C9010B8C02C0880F991F63
:100B60000A94E2F7482B4083EE89FF894081C9014E
:100B70000C8C02C0880F991F0A94E2F7482B40831F
:100B8000EE89FF8980810D8C02C0220F331F0A94E9
:100B9000E2F7209528232083DF91CF911F910F91B9
:100BA000FF90EF90DF90BF90AF900895DC011C960E
:100BB000ED91FC911D97E05CFF4F21913191808177
:100BC0009181281B390B2F733070C9010895DC0106
:100BD0001C96ED91FC911D97E05CFF4F20813181C7
:100BE000E054F040DF01AE5BBF4F8D919C911197B7
:100BF0002817390719F42FEF3FEF07C08D919C910B
:100C0000E80FF91F8081282F30E0C9010895DC0129
:100C10001C96ED91FC911D97E05CFF4F2081318186
:100C2000E054F040DF01AE5BBF4F8D919C91119776
:100C30002817390719F42FEF3FEF10C08D919C91C1
:100C40001197E80FF91F20818D919C9111970196C2
:100C50008F73907011969C938E9330E0C901089524
:100C6000FC0186859785DC01A05CBF4FFC01EE5B33
:100C7000FF4F2D913C911197808191812817390761
:100C8000C1F70895CF93DF93EC01462FEE85FF85E2
:100C9000E05CFF4F80819181E054F040019660E478
:100CA00070E00E9407079C01DF01AE5BBF4F8D9192
:100CB0009C91119728173907D1F3E05CFF4F808191
:100CC0009181E054F040E80FF91F4083EE85FF85E5
:100CD000E05CFF4F31832083EE89FF89208181E032
:100CE00090E00D8C02C0880F991F0A94E2F7282B20
:100CF000208381E090E0DF91CF910895109204026B
:100D00001092030288EE93E0A0E0B0E08093050229
:100D100090930602A0930702B093080285E291E047
:100D2000909302028093010289E791E090930E0272
:100D300080930D028DEB91E09093100280930F024F
:100D400085EC90E0909312028093110284EC90E085
:100D5000909314028093130280EC90E0909316021B
:100D60008093150281EC90E0909318028093170213
:100D700086EC90E090931A028093190284E08093AD
:100D80001B0283E080931C0287E080931D0285E0B4
:100D900080931E0281E080931F020895CF93DF931A
:100DA0000E949E030E947A02CDEFD4E00E94D401FB
:100DB0002097E1F30E94FD04F9CFCF92DF92EF92EA
:100DC000FF920F931F93CF93DF937C016B018A01F6
:100DD000C0E0D0E00FC0D6016D916D01D701ED915B
:100DE000FC910190F081E02DC7010995C80FD91F32
:100DF000015010400115110571F7CE01DF91CF911F
:100E00001F910F91FF90EF90DF90CF90089597FB87
:100E1000092E07260AD077FD04D02ED006D0002058
:100E20001AF4709561957F4F0895F6F79095819526
:100E30009F4F0895A1E21A2EAA1BBB1BFD010DC0F6
:100E4000AA1FBB1FEE1FFF1FA217B307E407F5077A
:100E500020F0A21BB30BE40BF50B661F771F881F56
:100E6000991F1A9469F760957095809590959B01EC
:100E7000AC01BD01CF010895AA1BBB1B51E107C006
:100E8000AA1FBB1FA617B70710F0A61BB70B881F1A
:100E9000991F5A95A9F780959095BC01CD010895A9
:100EA000EE0FFF1F0590F491E02D0994F894FFCF09
:100EB00064000E000F001000120001000300050086
:100EC00007000900110013000200040006000800DA
:100ED00001000000004206DD06D6050706E70530E2
:100EE0000600FFFFFFFFFFFFFFFFFFFFFFFFFFFF0A
:100EF000FFFFFFFFFFFFFFFFFFFFFFFFFFFFFFFF02
:100F0000EF90DF90CF900895EF92FF920F931F9391
:100F10008C01DC01ED91FC910190F081E02D6DE000
:100F200009957C01D801ED91FC910190F081E02DB3
:100F3000C8016AE009959C012E0D3F1DC9011F9152
:100F40000F91FF90EF900895CF93DF93DB010D9009
:100F50000020E9F71197A61BB70BEC01E881F98196
:100F60000280F381E02DAD010995DF91CF910895C5
:100F70004F925F927F928F929F92AF92BF92CF9249
:100F8000DF92EF92FF920F931F93DF93CF93CDB732
:100F9000DEB7A1970FB6F894DEBF0FBECDBF2C0110
:100FA000742ECB01223008F42AE019A231E2C32EBC
:100FB000D12CCC0EDD1E822E9924AA24BB24672DB1
:100FC000752FA50194010E94C30879018A01C80107
:100FD000B701A50194010E949108472D461B089472
:100FE000C108D1084A3014F4405D01C0495CF601E3
:100FF0004083E114F1040105110521F07E2C5F2DE1
:10100000C801DDCFC201B6010E94A407A1960FB6A8
:10101000F894DEBF0FBECDBFCF91DF911F910F912E
:10102000FF90EF90DF90CF90BF90AF909F908F9008
:101030007F905F904F900895CF92DF92EF92FF9252
:101040000F931F93CF93DF93EC016A017B0121156E
:10105000310541F4E881F9810190F081E02D642FA0
:1010600009951FC02A303105D1F477FF17C0E881F8
:10107000F9810190F081E02D6DE209958C01442702
:101080005527BA014C195D096E097F09CE012AE086
:101090000E94B8079801280F391F04C02AE00E9457
:1010A000B8079C01C901DF91CF911F910F91FF906B
:1010B000EF90DF90CF900895EF92FF920F931F93E0
:1010C0007B019A010027F7FC0095102FB801A701BA
:1010D0000E941C081F910F91FF90EF900895CF92EE
:1010E000DF92EF92FF920F931F936C017B019A01A5
:1010F0000027F7FC0095102FB801A7010E941C08DB
:101100008C01C6010E948407080F191FC8011F9196
:101110000F91FF90EF90DF90CF9008950E94A40769
:101120000895629FD001739FF001829FE00DF11D31
:10113000649FE00DF11D929FF00D839FF00D749F51
:10114000F00D659FF00D9927729FB00DE11DF91FFD
:10115000639FB00DE11DF91FBD01CF01112408955A
:1011600097FB092E07260AD077FD04D02ED006D093
:1011700000201AF4709561957F4F0895F6F79095C9
:1011800081959F4F0895A1E21A2EAA1BBB1BFD015A
:101190000DC0AA1FBB1FEE1FFF1FA217B307E40756
:1011A000F50720F0A21BB30BE40BF50B661F771FAE
:1011B000881F991F1A9469F760957095809590958E
:1011C0009B01AC01BD01CF010895AA1BBB1B51E1DE
:1011D00007C0AA1FBB1FA617B70710F0A61BB70BA7
:1011E000881F991F5A95A9F780959095BC01CD014C
:1011F0000895EE0FFF1F0590F491E02D0994F894E7
:10120000FFCF3A20006431325F6661696C757265A8
:101210003A006431322D70315F72656164696E67C6
:101220003A006431322D70325F72656164696E67B5
:101230003A006432305F6661696C7572653A0074B9
:101240006F74616C5F696F5F6661696C75726573FD
:101250003A00767265665F6661696C7572653A0020
:1012600064000E000F0010001200010003000500D2
:101270000700090011001300020004000600080026
:101280000100000000BF065A07530684066406AD3D
:101290000600FFFFFFFFFFFFFFFFFFFFFFFFFFFF56
:1012A000FFFFFFFFFFFFFFFFFFFFFFFFFFFFFFFF4E
:1012B000FFFFFFFFFFFFFFFFFFFFFFFFFFFFFFFF3E
:1012C000FFFFFFFFFFFFFFFFFFFFFFFFFFFFFFFF2E
:1012D000FFFFFFFFFFFFFFFFFFFFFFFFFFFFFFFF1E
:1012E000FFFFFFFFFFFFFFFFFFFFFFFFFFFFFFFF0E
:1012F000FFFFFFFFFFFFFFFFFFFFFFFFFFFFFFFFFE
:101300000010001200010003000500070009001191
:1013100000130002000400060008000100000000A5
:10132000E60681077A06AB068B06D406FFFFFFFFB1
:10133000FFFFFFFFFFFFFFFFFFFFFFFFFFFFFFFFBD
:10134000FFFFFFFFFFFFFFFFFFFFFFFFFFFFFFFFAD
:10135000FFFFFFFFFFFFFFFFFFFFFFFFFFFFFFFF9D
:10136000FFFFFFFFFFFFFFFFFFFFFFFFFFFFFFFF8D
:10137000FFFFFFFFFFFFFFFFFFFFFFFFFFFFFFFF7D
:101380004109003A00090050314209007672656651
:10139000206F757473696465206C696D697473007E
:1013A0007672656620696E73696465206C696D6923
:1013B0007473006661696C757265202D20706F739F
:1013C00074202D20696F746573745F6E6F5F646540
:1013D0006275672829006431325F6661696C7572D5
:1013E000653A0064000E000F0010001200010003B7
:1013F00000050007000900110013000200040006A8
:1014000000080001000000006A070508FE062F071B
:101410000F075807FFFFFFFFFFFFFFFFFFFFFFFF63
:10142000FFFFFFFFFFFFFFFFFFFFFFFFFFFFFFFFCC
:10143000FFFFFFFFFFFFFFFFFFFFFFFFFFFFFFFFBC
:10144000FFFFFFFFFFFFFFFFFFFFFFFFFFFFFFFFAC
:10145000FFFFFFFFFFFFFFFFFFFFFFFFFFFFFFFF9C
:10146000FFFFFFFFFFFFFFFFFFFFFFFFFFFFFFFF8C
:10147000FFFFFFFFFFFFFFFFFFFFFFFFFFFFFFFF7C
:1014800000258801270002800000880106010E90D7
:10149000080108021912C8001F900F911F90CF90E9
:1014A000DF90CC00000400806000080540800E90B2
:1014B000040100806C000E0408008000C100008060
:1014C00049080000080780000E9001108900C190B3
:1014D0000085028000006208100182918005811958
:1014E000001000001115909400018191000074011A
:1014F000E00D611D10008025128020000014811570
:10150000028590006000081481018201102008808B
:101510000690012403000090270000D004C002C000
:1015200000200024009401151D00089482E590809D
:10153000009489050801A002100C0002090018009F
:1015400009C0AA01A00FE01D100302178007800048
:10155000840500000010B20BC4016509061471096E
:10156000800F99110A90099100917090809090904D
:101570008B0008011D0188000080200030000080E1
:101580000200801333058210100000E08013330145
:1015900088089100408020E00080009408018800C5
:1015A00000806200700004904011800100048010EF
:1015B00048C010122404006815606260606000601A
:1015C0000804493000001660656020600E1040205D
:1015D000000024010140043300500060000031008D
:1015E0000028102020403020004104000030080076
:1015F0001200406070600010000100112400001013
:10160000000040600160001224000060016064601E
:101610007060002000104933002005206160706078
:10162000021442220140000122050028010064202A
:101630003040406008044132002800600000000093
:101640000010001200010001000000000000000076
:101650000000000000000000000000010000000089
:1016600000001200000009080000220080913805E7
:1016700090912F02813011F4916001C09E7F909370
:101680002F021F9108950F931F9308E817E0C801D8
:1016900061E070E041E00E944933C80162E070E01F
:1016A00040E00E944933C80165E070E04AE10E94D1
:1016B0004933C80166E070E043E00E944933C80145
:1016C00067E070E041E00E944933C80168E070E0E3
:1016D00041E00E9449331F910F9108950F931F938A
:1016E000CF93DF93C0E0D0E0082F10E015C085E075
:1016F00061E00E947E3468EC70E080E090E00E943F
:10170000AB3385E060E00E947E3468EC70E080E0FE
:1017100090E00E94AB332196C017D10744F360EDEF
:1017200077E080E090E00E94AB33C0E0D0E0F4CFFF
:101730000F931F93CF93DF93EC018B0141E00E9445
:10174000D42D882311F081E005C0CE01B80140E01E
:101750000E94D42DDF91CF911F910F910895EF92A8
:10176000FF920F931F93CF93DF937B018A01060FA4
:10177000171FEB01C017D107B0F420917A07309101
:101780007B0780917C0790917D072817390759F0D6
:10179000A8014C1B5D0B88E797E0BE010E94F63262
:1017A000C80FD91FE7CF9E012E193F09C901DF914C
:1017B000CF911F910F91FF90EF9008950F931F937A
:1017C0008C0182E592E064EF79E00E945E3582E56B
:1017D00092E0B8010E9426378091D3048823E9F073
:1017E00082E592E069EE79E00E945E356091D30473
:1017F00082E592E070E040E150E00E94F13682E53F
:1018000092E06CE20E9481356091D50482E592E01D
:1018100070E040E150E00E940437FFCFAF92BF92EA
:10182000CF92DF92EF92FF920F931F93DF93CF93AC
:10183000CDB7DEB76F970FB6F894DEBF0FBECDBF42
:101840005C011D8218861C821B828EE492E09A83C2
:101850008983C50160E071E042E050E00E94B60576
:10186000009709F070C089EF94E00E94522189EF3F
:1018700094E067ED74E00E946324882321F483E000
:1018800091E00E94DE0B8091BA04882339F08091A8
:10189000C604882311F08FEF01C081E0E82EEA949E
:1018A000E7FE03C0FF24F39440C0FF24F39400E05C
:1018B00010E025E0C22ED12CCC0EDD1E27C0A801E1
:1018C000440F551F400F511F440F551F440F551F04
:1018D00046545B4FC60169EF74E021E00E94C12AC3
:1018E000F82E0F5F1F4F882399F0A9EFB4E0F6019F
:1018F0008BE101900D928150E1F78B819C81909357
:10190000F8048093F704C6010E9452210E15BCF220
:101910008CE02E2D2802C001112486549B4FFC011F
:101920008BE0DF011D928A95E9F780912F0281FFFC
:101930004BC0FF2019F0FF24F39446C082E592E0EB
:101940006EE377E015C08E010B5F1F4FC80169EF92
:1019500074E0A50121E00E94C12AF82E882381F4B9
:1019600080912F0281FF30C082E592E068E277E04B
:101970000E945E3582E592E0B5010E94263724C0C0
:10198000A9EFB4E0F8018BE101900D928150E1F7ED
:101990008B819C819093F8048093F7048091BA0422
:1019A000882311F490E005C08091C604882361F477
:1019B00091E08CE09802C001112486549B4FB50140
:1019C0004BE050E00E94C405CE0101960E94080938
:1019D0008F2D6F960FB6F894DEBF0FBECDBFCF919F
:1019E000DF911F910F91FF90EF90DF90CF90BF900C
:1019F000AF900895AF92BF92CF92DF92EF92FF9295
:101A00000F931F93DF93CF93CDB7DEB7C155D0406F
:101A10000FB6F894DEBF0FBECDBF1FAA1AAE1EAA26
:101A20001DAA8EE492E09CAB8BABCE01C79667ED0E
:101A300074E00E946324882321F483E091E00E94F3
:101A4000DE0B8E010F5F1F4FC8016CE071E00E943A
:101A5000AF0547E3E42EF12CEC0EFD1E88E195E086
:101A6000B701A80122E00E94C12A882391F088E1F1
:101A700095E00E943122882361F482E592E068E6D5
:101A800079E00E94A93588E195E00E945221C701C2
:101A9000ECC08E01095C1F4F88E195E0B801AE01F2
:101AA0004F5F5F4F26E40E94C12A882361F482E5DC
:101AB00092E063E579E00E94A93588E195E00E9413
:101AC0005221C801D2C088E897E061E070E00E942E
:101AD0004233082F88E897E065E070E00E944233C7
:101AE000A82E88E897E066E070E00E944233B82EA6
:101AF00088E897E062E070E00E944233C82E88E8F0
:101B000097E067E070E00E944233D82E88E897E0C3
:101B100068E070E00E944233182F002329F4CE01C0
:101B20000B9667E171E029C0043029F4CE010B96D1
:101B30006CE171E022C0013029F4CE010B9661E224
:101B400071E01BC0053029F4CE010B9666E271E00E
:101B500014C0063029F4CE010B966CE271E00DC082
:101B6000023029F4CE010B9662E371E006C0033027
:101B700031F4CE010B9668E371E00E94AF058DB79A
:101B80009EB70E970FB6F8949EBF0FBE8DBFEDB7F0
:101B9000FEB731963FE1E32EF12CEC0EFD1EADB702
:101BA000BEB71296FC92EE9211978FE391E0938369
:101BB00082838A2D992787FD9095958384838B2D29
:101BC000992787FD9095978386838C2D992787FD8C
:101BD0009095918780878D2D992787FD9095938784
:101BE0008287812F992787FD9095958784870E940A
:101BF000DB058DB79EB70E960FB6F8949EBF0FBE4D
:101C00008DBF8E01055F1F4FC801B7010E949B0564
:101C1000F80101900020E9F73197E01BF10B84E116
:101C200095E0B801AF010E94592DF8010190002004
:101C3000E9F73197E01BF10B8E179F0731F082E532
:101C400092E06DE379E00E94A93584E195E060E5DA
:101C500071E00E94342D88E195E00E94042188E122
:101C600095E00E945221CE01C7960E945221CE01DA
:101C7000C3960E940809CF5ADF4F0FB6F894DEBF13
:101C80000FBECDBFCF91DF911F910F91FF90EF90CD
:101C9000DF90CF90BF90AF9008951F9388E897E0B2
:101CA00062E070E00E944233182F82E592E067E61E
:101CB00072E00E94A93582E592E063E572E00E943D
:101CC0005E35112329F482E592E06AE472E00DC0EA
:101CD000113029F482E592E06EE372E006C0123022
:101CE00031F482E592E066E372E00E945E3582E5BF
:101CF00092E00E94893582E592E060E172E00E9404
:101D00005E3582E592E0609135054AE050E00E9440
:101D1000813682E592E06CE072E00E945E3582E5F9
:101D200092E0609136054AE050E00E94933682E5E9
:101D300092E061E072E00E94A93582E592E06DEEEA
:101D400071E00E94A93582E592E066ED71E00E94A3
:101D5000A93582E592E064EC71E00E94A93582E544
:101D600092E06BEA71E00E94A93582E592E063E9B6
:101D700071E00E94A93582E592E064E771E00E947B
:101D8000A93582E592E06CE671E00E94A93582E512
:101D900092E06EE30E94813588E797E00E9411325D
:101DA000892BD1F382E592E00E94EA08813361F445
:101DB00082E592E06BE571E00E94A93588E897E042
:101DC00062E070E040E00DC0823381F482E592E091
:101DD00067E471E00E94A93588E897E062E070E06E
:101DE00041E00E9449330E94FA0C89C0833361F4B8
:101DF00082E592E068E371E00E94A93588E897E007
:101E000062E070E042E0EDCF8433A9F482E592E035
:101E10006AE171E00E94A93588E897E063E070E02C
:101E200040E00E94493388E897E064E070E040E0D9
:101E30000E94493364C0853331F582E592E06BEF4F
:101E400070E00E945E3588E797E00E941132892B8E
:101E5000D1F382E592E00E94EA08482F809335058D
:101E600088E897E065E070E00E9449330E94FA0C30
:101E700082E592E062EE70E00E945E3582E592E0DB
:101E8000609135052EC0863389F54AE012C082E59F
:101E900092E067EA70E00E945E3588E797E00E9472
:101EA0001132892BD1F382E592E00E94EA08482F93
:101EB0004053842F8150893050F74093360588E88D
:101EC00097E066E070E00E9449330E94FA0C82E5D8
:101ED00092E060E870E00E945E3582E592E06091F9
:101EE00036054AE050E00E94933609C0883709F071
:101EF000DCCE82E592E068E770E00E94A9351F9190
:101F000008951F9388E897E061E070E00E944233F3
:101F1000182F82E592E069E973E00E94A93582E515
:101F200092E06FE873E00E945E35143029F482E598
:101F300092E06CE873E029C0112329F482E592E075
:101F400069E873E022C0113029F482E592E066E886
:101F500073E01BC0153029F482E592E062E873E07B
:101F600014C0163029F482E592E06EE773E00DC0EC
:101F7000123029F482E592E06AE773E006C013307C
:101F800031F482E592E065E773E00E945E3582E518
:101F900092E06EE673E00E94A93582E592E063E686
:101FA00073E00E94A93582E592E067E573E00E9444
:101FB000A93582E592E06BE473E00E94A93582E5E1
:101FC00092E06FE373E00E94A93582E592E062E35C
:101FD00073E00E94A93582E592E065E273E00E9419
:101FE000A93582E592E068E173E00E94A93582E5B7
:101FF00092E06AE073E00E94A93582E592E062E037
:1020000073E00E94A93582E592E06EE30E9481357B
:1020100088E797E00E941132892BD1F382E592E0A4
:102020000E94EA08813361F482E592E061EF72E098
:102030000E94A93588E897E061E070E040E053C075
:10204000823361F482E592E060EE72E00E94A9358D
:1020500088E897E061E070E044E045C0833361F4D4
:1020600082E592E06FEC72E00E94A93588E897E083
:1020700061E070E041E037C0843361F482E592E0D2
:102080006DEB72E00E94A93588E897E061E070E0AE
:1020900045E029C0853361F482E592E06BEA72E0A5
:1020A0000E94A93588E897E061E070E046E01BC037
:1020B000863361F482E592E069E972E00E94A93515
:1020C00088E897E061E070E042E00DC0873399F462
:1020D00082E592E066E872E00E94A93588E897E020
:1020E00061E070E043E00E9449330E94FA0C85E011
:1020F0000E946E0B09C0883709F00BCF82E592E091
:102100006EE772E00E94A9351F9108952F923F92C9
:102110004F925F926F927F928F929F92AF92BF92F7
:10212000CF92DF92EF92FF920F931F93DF93CF93A3
:10213000CDB7DEB7C754D0400FB6F894DEBF0FBEA0
:10214000CDBF1DA618AA1CA61BA68EE492E09AA7D6
:1021500089A7CE018D9667ED74E00E9463248823E1
:1021600021F483E091E00E94DE0B8E01085F1F4F97
:10217000C8016CE071E00E94AF05BDE2EB2EF12CCE
:10218000EC0EFD1E88E195E0B701A80121E00E9458
:10219000C12A882351F488E195E00E945221C701A9
:1021A0000E9452210E94FA0CB9C1CC24DD248E0178
:1021B0000B5E1F4F88E195E00E94522318165CF4D5
:1021C000F801EC0DFD1D80830894C11CD11C84E135
:1021D000C816D10479F788E195E00E945221CE011A
:1021E0008D960E94522101E0BB24AAE18A2EF3E0E1
:1021F000AF2E7724739466246394992410E07E01B3
:102200000894E11CF11CE5E12E2E312C2C0E3D1E14
:1022100077E0472E512C4C0E5D1E8CC0ED939394AD
:102220002A2F2E19892D90E0F101E80FF91FE08186
:10223000EC3231F08C159D051CF4A415B50571F731
:10224000F701E20FF11D1082C7010E946005112302
:10225000F1F5C70167E171E00E94A605009711F44E
:1022600000E066C0C7016CE171E00E94A60500971E
:1022700011F404E05DC0C70161E271E00E94A605AF
:10228000009709F454C0C70166E271E00E94A605F8
:10229000009711F405E04CC0C7016CE271E00E94A8
:1022A000A605009711F406E043C0C70162E371E0A0
:1022B0000E94A605009711F402E03AC0C70168E346
:1022C00071E00E94A605009791F503E031C011303E
:1022D00031F4882E882361F56AE1862E29C01230F8
:1022E00039F4A82E882301F18AE08A15ECF020C089
:1022F000133041F4B82E8823D9F085E08B15C4F44F
:10230000BB2416C0143039F4782E81E0871580F490
:10231000772473940DC01530A1F4682E81E08615E2
:1023200038F46624639404C053E0A52E01C001E094
:102330001F5F9394892D90E08C159D0514F4D701AF
:102340006FCF202F332727FD30958091330590E004
:102350002817390711F440E063C088E897E061E08E
:1023600070E0402F0E94493300933305002349F465
:1023700082E592E040E659E060E070E026E00E94ED
:102380007C0880913305843049F482E592E040EC8A
:1023900052E160E070E026E00E947C088091330505
:1023A000813049F482E592E040E855E260E070E077
:1023B00026E00E947C0880913305853049F482E54F
:1023C00092E040E05BE460E070E026E00E947C0880
:1023D00080913305863049F482E592E040E056E989
:1023E00060E070E026E00E947C0880913305823036
:1023F00049F482E592E040E051EE60E070E026E0D2
:102400000E947C0880913305833049F482E592E094
:1024100040E052EC61E070E026E00E947C0841E080
:102420002B2D332727FD30958091340590E0281718
:10243000390751F0B092340588E897E062E070E027
:102440004B2D0E94493341E0282D332727FD30953D
:102450008091350590E02817390751F080923505B5
:1024600088E897E065E070E0482D0E94493341E03C
:102470002A2D332727FD30958091360590E02817C7
:10248000390751F0A092360588E897E066E070E0E1
:102490004A2D0E94493341E0272D332727FD3095EF
:1024A0008091370590E02817390751F07092370571
:1024B00088E897E067E070E0472D0E94493341E0EB
:1024C000262D332727FD30958091380590E0281779
:1024D000390751F06092380588E897E068E070E0CD
:1024E000462D0E94493302C0413011F40E94FA0C7B
:1024F0008091370590912F02813011F4926001C0D4
:102500009D7F90932F028091380590912F0281300A
:1025100011F4916001C09E7F90932F02CE018996A5
:102520000E940809C95BDF4F0FB6F894DEBF0FBEEB
:10253000CDBFCF91DF911F910F91FF90EF90DF9072
:10254000CF90BF90AF909F908F907F906F905F9053
:102550004F903F902F9008950F931F9380E060E07D
:102560000E943F3480E061E00E947E3480E00E945F
:10257000D234019709F471C08DE061E00E943F34CC
:102580008DE061E00E947E3410E000E269E170E0DD
:1025900080E090E00E94AB338BB180278BB980E064
:1025A0000E94D234019709F458C069E170E080E0DC
:1025B00090E00E94AB3385B1802785B980E00E940E
:1025C000D234019709F449C01F5F1832F9F60E940E
:1025D000430B82ED94E060E04AE00E94201F8823D4
:1025E00021F483E791E00E94DE0B87ED94E062ED39
:1025F00074E00E94980B882321F48DE791E00E94FB
:10260000DE0B89EF94E067ED74E00E946324882379
:1026100021F483E091E00E94DE0B0E94FA0C85E039
:1026200061E00E943F348DE061E00E943F3485E02C
:1026300061E00E947E348DE061E00E947E3410E211
:1026400064EF71E080E090E00E94AB338BB18127B2
:102650008BB985B1812785B9F3CF1F910F9108956B
:1026600085E061E00E943F3483B7817F83BF83B7F9
:10267000816083BF80917A008F7780937A0080E8B1
:1026800080BF8FE380937E0083E080937F00809102
:102690006400806880936400809164008860809307
:1026A0006400809164008064809364008091640081
:1026B0008160809364000E94AC120E94BA0A8091EB
:1026C0003305882349F482E592E040E659E060E072
:1026D00070E026E00E947C0880913305843049F444
:1026E00082E592E040EC52E160E070E026E00E947A
:1026F0007C0880913305813049F482E592E040E81E
:1027000055E260E070E026E00E947C08809133058D
:10271000853049F482E592E040E05BE460E070E0FF
:1027200026E00E947C0880913305863049F482E5DA
:1027300092E040E056E960E070E026E00E947C080C
:1027400080913305823049F482E592E040E051EE19
:1027500060E070E026E00E947C08809133058330C1
:1027600049F482E592E040E052EC61E070E026E05E
:102770000E947C0882E592E069E871E00E942337BC
:1027800082ED94E060E04AE00E94201F882349F433
:1027900082E592E069ED79E00E945E3583E00E9477
:1027A0006E0B87ED94E062ED74E00E94980B882335
:1027B00049F482E592E067EC79E00E945E3583E0BF
:1027C0000E946E0B89EF94E067ED74E00E94632431
:1027D000882349F482E592E068EB79E00E945E3557
:1027E00083E00E946E0B82E592E06BE871E00E944C
:1027F00023370E94861088E1EAEBF4E0DF011D92A6
:102800008A95E9F708954F925F926F927F928F9227
:102810009F92AF92BF92CF92DF92EF92FF920F936F
:102820001F93DF93CF93CDB7DEB7A0970FB6F89481
:10283000DEBF0FBECDBFAC0188E195E069EF74E06B
:1028400026E40E94C12A882321F48DE891E00E94A9
:10285000DE0B8091290590912A05A0912B05B0915E
:102860002C050097A105B10561F488E195E040E0F1
:1028700050E060E070E00E943A2088E195E00E941C
:10288000042182E592E06CE30E94813585E061E0FD
:102890000E947E3420913305243009F4D9C02130C0
:1028A00029F480E895E2A0E0B0E01FC0253029F4CB
:1028B00080E09BE4A0E0B0E018C0263029F480E07E
:1028C00096E9A0E0B0E011C0223029F480E091EE5A
:1028D000A0E0B0E00AC080E699E0A0E0B0E02330DC
:1028E00021F480E092ECA1E0B0E0892E9A2EAB2E8C
:1028F000BB24FF2400E010E0CC24DD243E0108943A
:10290000611C711C90E2E92E82E0482E512C4C0E85
:102910005D1E6FC082E592E0B30140E250E00E948C
:10292000AF0B482F8823A9F12981809135052817FD
:1029300091F4F39430913605F20191E00AC0808160
:10294000821711F0FF2403C0F394F31621F09F5F68
:1029500031969417A0F384E195E0B30150E00E9412
:10296000592D8BB18E258BB9C601A0E0B0E0881639
:102970009906AA06BB0620F00894C11CD11C2EC0E3
:1029800088E195E00E94042100E010E0CC24DD24E1
:1029900030C081E0053F180720F188E195E00E94F2
:1029A00004215D988091640080628093640080912E
:1029B000640084608093640083B7816083BF8895DE
:1029C00083B78E7F83BF809164008B7F8093640088
:1029D000809164008F7D80936400FF2400E010E00C
:1029E00008C00F5F1F4F61E070E080E090E00E9440
:1029F000AB3380913605F81608F48CCF88E195E06A
:102A00000E94042188E195E00E94522185E060E067
:102A10000E947E3482E592E063E971E00E942337F0
:102A200081E0A0960FB6F894DEBF0FBECDBFCF9168
:102A3000DF911F910F91FF90EF90DF90CF90BF90AB
:102A4000AF909F908F907F906F905F904F90089580
:102A500080EC92E1A0E0B0E048CF0F931F93DF93AA
:102A6000CF93CDB7DEB72D970FB6F894DEBF0FBE6C
:102A7000CDBFDE011196E5E9F1E08DE001900D9208
:102A80008150E1F788E195E069EF74E08E010F5F16
:102A90001F4FA80122E40E94C12A882339F482E54D
:102AA00092E06DE779E00E945E3507C088E195E02D
:102AB0000E945221C8010E9403142D960FB6F8946B
:102AC000DEBF0FBECDBFCF91DF911F910F91089553
:102AD000CF92DF92EF92FF920F931F93DF93CF93EA
:102AE000CDB7DEB72D970FB6F894DEBF0FBECDBFC2
:102AF00088E897E063E070E00E944233182F88E88E
:102B000097E064E070E00E944233282F1F3F99F461
:102B10008F3F89F488E897E063E070E040E00E942E
:102B2000493388E897E064E070E040E00E94493370
:102B3000EE24FF2410C0922F80E0E12EFF24E82A2B
:102B4000F92A8EEFE8168FEFF80629F482E592E075
:102B500066EA79E01CC0DE011196EEEAF1E08DE054
:102B600001900D928150E1F78E010F5F1F4F32EA05
:102B7000C32E31E0D32E0894E11CF11C9EEFE91620
:102B80009FEFF90638F082E592E064E979E00E946F
:102B90005E3542C000D000D000D0EDB7FEB7319610
:102BA000ADB7BEB712961C930E931197D382C28213
:102BB000F582E4820E94DB058DB79EB706960FB6BC
:102BC000F8949EBF0FBE8DBF88E195E069EF74E079
:102BD000A80122EC0E94C12A882369F288E195E0CD
:102BE0000E94522188E897E063E070E04E2D0E9439
:102BF000493388E897E064E070E00E9442338F1523
:102C000039F088E897E064E070E04F2D0E94493386
:102C1000CE0101960E9403142D960FB6F894DEBFE4
:102C20000FBECDBFCF91DF911F910F91FF90EF901D
:102C3000DF90CF9008952F923F924F925F926F92C4
:102C40007F928F929F92AF92BF92CF92DF92EF923C
:102C5000FF920F931F93DF93CF93CDB7DEB7C1568B
:102C6000D0400FB6F894DEBF0FBECDBF11E081E2B9
:102C7000282E312C2C0E3D1ECE010996A2969FAF18
:102C80008EAFA2970FE3402E512C4C0E5D1EF20129
:102C90003496A096FFAFEEAFA09701C011E08091EF
:102CA0002F0283FF05C082E592E06AE10E94813530
:102CB000112329F482E592E061E20E94813582E5E8
:102CC00092E06EE30E948135C1016EE10E94490AE3
:102CD00011E0882321F380E00E94D6097C016BEB90
:102CE00071E00E94A605009749F580912F0281FFAF
:102CF00006C082E592E064E279E00E94A93589EF9E
:102D000094E00E94522189EF94E067ED74E00E9404
:102D10006324882321F483E091E00E94DE0B88E1A4
:102D2000EAEBF4E011928A95E9F780912F0281FF96
:102D3000B5CF82E592E06CE079E0D7C5F7018081FC
:102D40008F3339F0C70160EC71E00E94A60500974F
:102D500019F40E94010AA3CFC70165EC71E00E943B
:102D6000A605009719F40E94810F99CFC7016AEC5C
:102D700071E00E94A605009719F40E944D0E8FCFB6
:102D8000C7016EEC71E042E050E00E94B60500978A
:102D9000E1F480912F0281FF0EC082E592E06EEF98
:102DA00078E00E945E3582E592E06091EE044AE0B0
:102DB00050E00E94933689EF94E066E00E948827F5
:102DC00082E592E06FED78E090C5C70161ED71E0BA
:102DD00042E050E00E94B6050097C1F581E00E94F4
:102DE000D6098C01009709F44CC524961FAE249790
:102DF00027961FAE279723961FAE1EAE23978EE40D
:102E000092E0F20191838083A0968EAD9FADA09752
:102E100069EF74E0A80120E00E943C2C882311F0A7
:102E200011E010C080912F0281FF0BC082E592E07B
:102E300064EC78E00E945E3582E592E0B8010E9481
:102E4000263710E0C2010E94080929CFC70164EDAE
:102E500071E042E050E00E94B605009709F05FC0C3
:102E600081E00E94D6098C01009709F40AC5E7E5C4
:102E7000F5E020E080819181892B19F08281811118
:102E80002F5F339695E0E636F907A1F7233009F076
:102E9000FAC4C80167ED71E043E050E00E94B60556
:102EA000009709F0F0C482E00E94D609AC0188E1E5
:102EB00095E069EF74E021E00E94C12A882309F4BB
:102EC000E0C488E195E00E94832509C080911B053C
:102ED000823008F4E4C488E195E00E94A623182F0C
:102EE0004CC288E195E00E943122F9CF82E592E060
:102EF00066EA78E00E94A93580912F0281FFC1C463
:102F000082E592E040E050E060E070E02AE030E0EE
:102F10000E944D3682E592E065E978E053C3C7012F
:102F20006BED71E042E050E00E94B605009749F475
:102F300081E00E94D609009709F4A3C40E940E0CF8
:102F40009FC3C7016EED71E044E050E00E94B605FA
:102F5000009709F05EC181E00E94D6098C010097BC
:102F600009F48FC488E195E069EF74E0A80121E0DD
:102F70000E94C12A882349F480912F0281FF81C4D5
:102F800082E592E060E878E064C382E00E94D609BE
:102F90007C01009709F44EC0FC0101900020E9F784
:102FA0003197E81B20E030E04E2F50E00CC0F701D5
:102FB000E20FF31F8081992787FD9095C0970A97AC
:102FC000C8F52F5F3F4F241735078CF3870140E08A
:102FD00050E060E070E019C0CB01BA012AE030E0B7
:102FE00040E050E00E943937AB01BC018D2D99279C
:102FF00087FD9095C097AA2797FDA095BA2F480FF7
:10300000591F6A1F7B1F0F5F1F4FF801D0808D2D46
:1030100080538A3008F388E195E00E943A208823A3
:1030200049F480912F0281FF74C182E592E06EE63F
:1030300078E068C183E00E94D609AC01009709F4EA
:103040003FC0FC0101900020E9F73197E81B20E028
:1030500030E06E2F70E00CC0FA01E20FF31F8081A8
:10306000992787FD9095C0970A9750F52F5F3F4F9E
:10307000261737078CF38A0166247724430119C089
:10308000C401B3012AE030E040E050E00E9439374B
:103090003B014C018F2D992787FD9095C097AA275A
:1030A00097FDA095BA2F680E791E8A1E9B1E0F5F92
:1030B0001F4FF801F0808F2D80538A3008F304C031
:1030C00066246A94762C430184E00E94D609AC0100
:1030D000009709F440C0FC0101900020E9F7319706
:1030E000E81B20E030E06E2F70E00CC0FA01E20F28
:1030F000F31F8081992787FD9095C0970A9758F50F
:103100002F5F3F4F261737078CF36A01EE24FF2409
:1031100087011AC0C801B7012AE030E040E050E062
:103120000E9439377B018C018B2D992787FD909563
:10313000C097AA2797FDA095BA2FE80EF91E0A1F7F
:103140001B1F0894C11CD11CF601B0808B2D80532D
:103150008A3000F305C0B1E0EB2EF12C012D112DCA
:10316000A1E0AA2EB12CC12CD12C3FC06A147B0443
:103170008C049D0408F440C0262FF1E0EF16F10402
:103180000105110581F4862F80528F3528F16A30B0
:1031900011F06D3021F482E592E0622F1FC082E5CC
:1031A00092E06EE21BC082E0E816F1040105110511
:1031B00069F482E592E040E150E00E94813682E5C8
:1031C00092E063EE71E00E9423370AC093E0E916B3
:1031D000F1040105110521F482E592E00E94B30893
:1031E0000894A11CB11CC11CD11C88E195E00E946F
:1031F0005223BC0197FFBACF88E195E00E9452218B
:1032000080912F0283FD4ACD82E592E00E948935AC
:1032100045CDC70165EE71E045E050E00E94B6057E
:10322000009709F0AFC081E00E94D6098C01009799
:1032300009F427C388E195E069EF74E0A80122E072
:103240000E94C12A882349F480912F0281FF19C36B
:1032500082E592E069E578E0FCC182E00E94D6094F
:103260007C01009709F45AC0FC0101900020E9F7A5
:103270003197E81B20E030E04E2F50E00DC0F70101
:10328000E20FF31F8081992787FD9095C0970A97D9
:1032900008F044C02F5F3F4F2417350784F38701A0
:1032A00040E050E060E070E019C0CB01BA012AE0D4
:1032B00030E040E050E00E943937AB01BC018D2D79
:1032C000992787FD9095C097AA2797FDA095BA2FBB
:1032D000480F591F6A1F7B1F0F5F1F4FF801D080D7
:1032E0008D2D80538A3008F388E195E00E943A20C2
:1032F0008823A1F480912F0281FF0BC082E592E028
:1033000067E478E00E945E3582E592E0B7010E94B2
:10331000263788E195E00E945221B3C280912F02A6
:1033200083FF05C082E592E06AE10E94813582E573
:1033300092E06BEE71E00E942337C1016EE10E94C2
:10334000490A182F882311F411E017C084E195E091
:10335000B101412F50E00E94592D212F30E08217FA
:103360009307E1F280912F0281FF06C082E592E08F
:103370006FE278E00E945E3510E088E195E00E94FF
:1033800052218DCCC7016DEE71E044E050E00E9407
:10339000B6050097C1F581E00E94D609AC010097FF
:1033A00009F46FC288E195E069EF74E021E00E94C2
:1033B000C12A8823A1F04091290550912A056091E6
:1033C0002B0570912C0582E592E02AE030E00E9406
:1033D0004D3688E195E00E94522111E00BC08091AA
:1033E0002F0281FF06C082E592E06CE278E00E9445
:1033F0005E3510E080912F0283FD51CC82E592E092
:103400000E9489354CCCC70162EF71E00E94A6058D
:10341000009709F0DAC082E592E06FE178E00E945F
:103420005E358091D604823049F0833061F081307E
:1034300079F482E592E06BE178E00EC082E592E0FB
:1034400067E178E009C082E592E062E178E004C0DB
:1034500082E592E06AE078E00E94A93582ED94E08E
:103460006AE0AE014F5F5F4F0E943E1E882339F431
:1034700082E592E06BEF77E00E945E3502C282E562
:1034800092E069EE77E00E945E3582E592E0698124
:1034900040E150E00E94933682E592E060EE77E0F2
:1034A0000E945E3582E592E06A810E94813582E564
:1034B00092E06B810E94BD3582E592E066ED77E097
:1034C0000E945E358E010C5F1F4F82E592E0F8018D
:1034D00061918F010E948135A2968EAD9FADA2971A
:1034E0000817190791F782E592E06AEC77E00E94ED
:1034F0005E35698562956F7082E592E04AE050E042
:103500000E94813682E592E06EE20E9481356985F3
:103510006F7082E592E04AE050E00E94933682E5C7
:1035200092E06AEB77E00E945E354A855B856C85A8
:103530007D8582E592E02AE030E00E945C3682E5FB
:1035400092E065EA77E00E945E356F856F7082E5F4
:1035500092E04AE050E00E94813682E592E06FE21C
:103560000E9481356F8562956F7070E06053784F6F
:103570008E858F7090E0F4E0880F991FFA95E1F73F
:10358000680F791F82E592E04AE050E00E9404371C
:1035900082ED94E00E945E1E7B018C016115710535
:1035A0008105910559F082ED94E069E0AE014F5E2E
:1035B0005F4F0E943E1E882309F081C182E592E0A0
:1035C00066E977E00E94A9355CC1C70167EF71E049
:1035D0000E94A605009749F488E195E00E94042125
:1035E00089EF94E00E94042159CBC7016CEF71E090
:1035F0000E94A605009731F4E091B804F091B90457
:1036000009953FC1C70162E072E043E050E00E94CB
:10361000B605009721F581E00E94D6098C0100973C
:1036200009F42FC188E195E069EF74E0A80122EC6C
:103630000E94C12A882329F088E195E00E94522146
:103640002DCB80912F0281FF1CC182E592E060E7C3
:1036500077E00E945E3582E592E0B80110C1C701B3
:1036600066E072E046E050E00E94B605009751F433
:1036700081E00E94D609009709F403C10E94031457
:10368000182F0DCBC7016DE072E00E94A6050097D0
:1036900009F040C082E592E061E172E00E942337C8
:1036A0008091BA04882311F4CC2409C08091C60407
:1036B000882319F0CC24CA9402C0CC24C394DD24FE
:1036C000EC2CFF240894E108F1081BC00D2D10E03C
:1036D000B801660F771F600F711F660F771F660FA7
:1036E000771F66547B4F82E592E00E9423370E15C8
:1036F0001F0534F482E592E064E172E00E94233712
:10370000D394DC1418F382E592E066E172E00E9443
:103710002637C4CAC70167E172E044E050E00E9466
:10372000B605009779F581E00E94D6098C010097D3
:1037300009F4A7C06CE172E042E050E00E94B605D7
:10374000F82E882339F481E08093380580912F0288
:1037500081600FC0C8016FE172E043E050E00E9459
:10376000B605F82E882339F41092380580912F027F
:103770008E7F80932F0288E897E068E070E04091A8
:10378000380537C0C70163E272E047E050E00E94AD
:10379000B6050097B9F581E00E94D6098C01009723
:1037A00009F46FC06CE172E042E050E00E94B6059F
:1037B000F82E882339F481E08093370580912F0219
:1037C00082600FC0C8016FE172E043E050E00E94E8
:1037D000B605F82E882339F41092370580912F0210
:1037E0008D7F80932F0288E897E067E070E040913A
:1037F00037050E9449330E94FA0C10E0FF2009F0BF
:103800004ECA4CCAC7016BE272E043E050E00E942E
:10381000B605009739F581E00E94D6098C01009722
:1038200081F16CE172E042E050E00E94B605982F11
:10383000882321F480912F0288600DC0C8016FE1B8
:1038400072E043E050E00E94B605982F882329F4E7
:1038500080912F02877F80932F0210E0992309F037
:103860001ECA1CCA80912F0281FF0BC082E592E024
:103870006EE577E00E945E3582E592E0B7010E9436
:10388000263710E00CCA88E195E069EF74E0A801E2
:1038900021E00E94C12A882309F018CB27CB88E1B8
:1038A00095E00E94522188E195E069EF74E0A8015B
:1038B00022E00E94C12A882309F45ECD12CB82E562
:1038C00092E06AE877E00E945E3516950795F794D6
:1038D000E79482E592E0B801A7012AE030E00E9477
:1038E0004D3682E592E066E877E00E94A935D6C9B8
:1038F00080913405882311F40E9468158091340565
:10390000813011F40E942D150E941B16FFCFFF92EB
:103910000F931F93CF93DF938B010E949D33EB0195
:10392000FF24FA9409C00E949D336C1B7D0B601725
:10393000710710F080E008C0FEBC0DB407FEFDCF9B
:103940008EB58F3F81F781E0DF91CF911F910F916D
:10395000FF900895FC014281242F30E0C901959524
:10396000879580658CBD40FF02C080E004C080E088
:10397000463009F081E08DBD808160E00E947E3498
:103980000895DF92EF92FF920F931F93CF93DF93EF
:10399000EC01D62E79018A010E94AA1CCE016CE2AC
:1039A00071E00E94871C8D2D80648EBD0DB407FED2
:1039B000FDCF28E130E0D801C701022E04C0B69542
:1039C000A795979587950A94D2F78EBD0DB407FEFB
:1039D000FDCF285030408FEF283F380761F7DD20BA
:1039E00011F485E906C088E0D81611F487E801C013
:1039F0008FEF8EBD0DB407FEFDCF8CE0D81631F4ED
:103A00008FEF8EBD0DB407FEFDCF8EB59FEF2FEF6C
:103A10002EBD0DB407FEFDCF8EB587FF04C09923E0
:103A200011F09150F5CF8B83DF91CF911F910F91C2
:103A3000FF90EF90DF900895DF92EF92FF920F9347
:103A40001F93CF93DF93EC01D62E79018A0167E3B0
:103A500020E030E040E050E00E94C11C882331F0BB
:103A6000CE016D2DA80197010E94C11CDF91CF915D
:103A70001F910F91FF90EF90DF900895FC018081DE
:103A800061E00E947E348FEF8EBD0DB407FEFDCF46
:103A90000895DC016EBDFA0120E030E00DB407FEB0
:103AA000FDCF80818EBD0DB407FEFDCF81818EBD1F
:103AB0002E5F3F4F329682E02030380779F70DB401
:103AC00007FEFDCF8FEF8EBD0DB407FEFDCF8FEF4C
:103AD0008EBD0DB407FEFDCF8FEF8EBD0DB407FE7A
:103AE000FDCF8EB513968C9313978F71853011F49B
:103AF00081E0089583E111968C931197CD010E9486
:103B00003E1D80E00895CF92DF92EF92FF920F93D7
:103B10001F93CF93DF93EC017A018B0169018C81B4
:103B2000833039F059E0EE0CFF1C001F111F5A952D
:103B3000D1F7CE0168E1A80197010E94C11C88233A
:103B400011F086E023C0CE016EEFA6010E94491D50
:103B50008823E9F0CE0168E572E00E94871C882383
:103B600011F487E113C0CE016DE020E030E040E0C9
:103B700050E00E94C11C882341F48FEF8EBD0DB42C
:103B800007FEFDCF8EB5882379F086E18983CE01CB
:103B90000E943E1D80E0DF91CF911F910F91FF9019
:103BA000EF90DF90CF900895CE010E943E1D81E0FE
:103BB000F2CFBF92CF92DF92EF92FF920F931F93BB
:103BC000CF93DF93EC016B017A010E949D338B014F
:103BD000BB24BA9409C00E949D33601B710B6D52C7
:103BE000714010F081E10BC0BEBC0DB407FEFDCFEB
:103BF0008EB58B838F3F79F38E3F39F08FE08983C9
:103C0000CE010E943E1D80E02FC0D7011197EF2802
:103C1000D9F08FEF8EBD20E030E09FEF0BC00DB4E8
:103C200007FEFDCF8EB5F601E20FF31F80839EBD28
:103C30002F5F3F4F2A173B0790F30DB407FEFDCFD0
:103C40008EB5AC0DBD1D8C938FEF8EBD0DB407FEF0
:103C5000FDCF8EB58FEF8EBD0DB407FEFDCF8EB5B7
:103C6000CE010E943E1D81E0DF91CF911F910F9107
:103C7000FF90EF90DF90CF90BF9008950F931F9328
:103C8000CF93DF93EC018A0120E030E040E050E088
:103C90000E94C11C882339F080E18983CE010E94F3
:103CA0003E1D80E006C0CE01B80140E150E00E9418
:103CB000D91DDF91CF911F910F910895EF92FF923F
:103CC0000F931F93DF93CF93CDB7DEB760970FB6F7
:103CD000F894DEBF0FBECDBF8C0169E0AE014F5F2F
:103CE0005F4F0E943E1E882309F464C0898182953B
:103CF00086958695837089F58F818370382F330F71
:103D0000330F20E0888590E0880F991F880F991F56
:103D1000282B392B8985829586958695837090E02E
:103D2000282B392B2F5F3F4F790100E010E08E8167
:103D30008F7090E007972A852370220F3B85331FF1
:103D40003327331F232B820F911D04C0EE0CFF1C61
:103D5000001F111F8A95D2F730C0813041F5888548
:103D60008695869590E0A0E0B0E08C01FF24EE24DB
:103D70008A8590E0A0E0B0E0E82AF92A0A2B1B2B04
:103D8000998580E0AA2797FDA095BA2FE82AF92AFD
:103D90000A2B1B2B0894E11CF11C011D111D7AE05C
:103DA000EE0CFF1C001F111F7A95D1F706C08BE0A7
:103DB000F8018183EE24FF248701B701C8016096D2
:103DC0000FB6F894DEBF0FBECDBFCF91DF911F912C
:103DD0000F91FF90EF900895CF92DF92EF92FF92B4
:103DE0000F931F93CF93DF93EC017A018B0169014D
:103DF0008C81833039F0A9E0EE0CFF1C001F111FED
:103E0000AA95D1F7CE0161E1A80197010E94C11CDA
:103E1000882339F084E08983CE010E943E1D80E032
:103E200006C0CE01B60140E052E00E94D91DDF91EC
:103E3000CF911F910F91FF90EF90DF90CF90089559
:103E4000BF92CF92DF92EF92FF920F931F93CF9387
:103E5000DF93EC01B62E1C82198248830E949D33A9
:103E60006B01888161E00E943F34888161E00E949B
:103E70007E348CE060E00E943F348BE061E00E9481
:103E80003F348DE061E00E943F348AE061E00E94AF
:103E90003F348AE061E00E947E3485E08A8382E5D7
:103EA0008CBD1DBC80E09FEF9EBD0DB407FEFDCF15
:103EB0008F5F8A30C9F709C00E949D336C197D0954
:103EC000615D774010F081E056C0CE0160E020E0F7
:103ED00030E040E050E00E94C11C182F8B838130FD
:103EE00059F7CE0168E02AEA31E040E050E00E9454
:103EF000C11C82FF02C01C8311C080E02FEF2EBDC9
:103F00000DB407FEFDCF9EB58F5F8430C1F79B8354
:103F10009A3A11F082E02FC082E08C838C8182304B
:103F200021F0EE24FF2487010FC0E12CF12C012D9C
:103F300000E4102F09C00E949D336C197D09615D5A
:103F4000774010F08AE017C0CE0169E2A80197011E
:103F50000E941C1D8B83882371F78C81823029F588
:103F6000CE016AE320E030E040E050E00E94C11C56
:103F7000882331F088E08983CE010E943E1D21C054
:103F80008FEF8EBD0DB407FEFDCF8EB5807C803CDB
:103F900011F483E08C8380E09FEF9EBD0DB407FE9B
:103FA000FDCF2EB58F5F8330C1F7CE010E943E1D3D
:103FB00086E08B1518F488E1898303C0BA8281E01A
:103FC00001C080E0DF91CF911F910F91FF90EF90A2
:103FD000DF90CF90BF9008950F931F93CF93DF93FF
:103FE000DC01EB018A0180E090E020E2FE01E80FB5
:103FF000F91F208301968B309105C1F757E040E00F
:1040000024C0622F2E3219F08CEF99E007C05A308D
:1040100051F15AE048E018C0321729F1FC0101962D
:1040200034913323C9F75417F0F02132E0F02F37E1
:10403000D0F4822F81568A3110F4622F6052FE0133
:10404000E40FF11D60834F5F11962C91222311F034
:104050002F32B9F6F801B183A08390E088818032D5
:1040600019F091E001C090E0892FDF91CF911F916D
:104070000F9108956F927F928F929F92AF92BF920D
:10408000CF92DF92EF92FF920F931F93CF93DF9324
:10409000EC017A018B012B81222309F480C08989EC
:1040A0009A89AB89BC8984179507A607B70708F4D6
:1040B00076C085C0E114F1040105110551F41C829C
:1040C0001D821E821F82188619861A861B8681E031
:1040D00067C0288539854A855B85E98DFA8D858598
:1040E00090E00996215030404040504039014A014B
:1040F000082E04C096948794779467940A94D2F714
:104100002F5F3F4F4F4F5F4F0894E108F1080109BF
:1041100011095701680104C0D694C794B794A794B5
:104120008A95D2F70894E11CF11C011D111DA614FB
:10413000B704C804D90428F02115310541055105FB
:1041400049F48D899E89AF89B88D8C839D83AE8318
:10415000BF8316C0A618B708C808D90811C04C817B
:104160005D816E817F81898D9A8D94010E94C22F1D
:104170000894A108B108C108D108882331F40FC000
:1041800084E0882E912C8C0E9D1EA114B104C104D4
:10419000D10429F7E886F9860A871B8798CF80E043
:1041A000DF91CF911F910F91FF90EF90DF90CF9013
:1041B000BF90AF909F908F907F906F900895223026
:1041C00009F078CFE7CFCF93DF93EC018C859D8505
:1041D000AE85BF8540E0611141E0BC01CD010E9488
:1041E000982D882319F420E030E00AC08889282F10
:1041F00030E095E0220F331F9A95E1F720593A4FAE
:10420000C901DF91CF9108950F931F93CF93DF934F
:104210008C01FC0183818823E1F1818187FF36C015
:10422000C80161E00E94E320EC01009791F18881D0
:10423000853E79F1F8018381823040F48189928949
:10424000A389B4898C8F9D8FAE8FBF8FF80185892C
:104250009689A789B08D9B8F8A8FCD01AA27BB270E
:104260009D8B8C8BE0916605F0916705309751F03E
:10427000BE016A5E7F4FCE0148960995888D998D63
:104280009B8B8A8BF80181818F7781830E945D2DC2
:1042900004C081E0F801808380E0DF91CF911F911D
:1042A0000F9108950F931F938C010E940421F80130
:1042B00013821F910F910895FC018381882319F0C7
:1042C000CF010E94522108956F927F928F929F9208
:1042D000AF92BF92CF92DF92EF92FF920F931F9314
:1042E000DF93CF9300D000D0CDB7DEB77C015A0169
:1042F0006B01DC0113968C911397813009F091C00A
:1043000011968C9181FF8DC0A0C00097A105B105C9
:1043100011F481E087C0F701608471848284938402
:10432000C701B601A5010E943A20882309F479C08B
:10433000D70159968D919C915A97A114B104C1044B
:10434000D10489F455964D915D916D917C9158976A
:104350000E943830882309F464C0F701158A168A50
:10436000178A108E44C0D70114964D915D916D91BE
:104370007C9117979E012F5F3F4F0E94C22F882389
:1043800009F44FC0D7015996ED91FC915A97498194
:104390005A816B817C818789803149F4483FBFEF26
:1043A0005B07B0E06B07B0E07B0748F020C0483FF8
:1043B0008FEF58078FEF68078FE07807C0F4CF01C1
:1043C0000E943830882369F1D70114964D915D9190
:1043D0006D917C91179759968D919C915A970FEFFB
:1043E0001FEF2FEF3FE00E943B2F8823D1F0F70112
:1043F000A18AB28AC38AD48A818180688183C701F5
:104400000E940421882369F0B601A5016A147B0487
:104410008C049D0410F4B401A301C7010E943A204A
:1044200001C080E00F900F900F900F90CF91DF911F
:104430001F910F91FF90EF90DF90CF90BF90AF90C2
:104440009F908F907F906F900895F7018189928956
:10445000A389B48984179507A607B70708F055CF35
:10446000E0CFCF93DF93EC0140E050E060E070E0FC
:104470000E946421882369F0CE0161E00E94E3205C
:10448000FC01009731F085EE80831B820E945D2D38
:1044900001C080E0DF91CF9108952F923F924F921B
:1044A0005F926F927F928F929F92AF92BF92CF92C4
:1044B000DF92EF92FF920F931F93CF93DF93EC0164
:1044C0002A018B81882309F4B6C0898180FFB3C09B
:1044D000C8C025014E185F083B0174E0272E312C1F
:1044E0002C0E3D1E4201A1C0288539854A855B8579
:1044F0006FEFA62E61E0B62EA222B3228B81790146
:104500008A0199E016950795F794E7949A95D1F763
:10451000E98DFA8D823049F4428D538D648D758D0D
:104520004E0D5F1D601F711F3FC0D480DA94DE20E6
:10453000A114B104D9F4DD20C9F4211531054105D8
:10454000510549F48D899E89AF89B88D8C839D83EF
:10455000AE83BF830BC04C815D816E817F81CF01B3
:1045600091010E94C22F882309F465C0E98DFA8D5C
:104570004C815D816E817F8142505040604070402F
:10458000058404C0440F551F661F771F0A94D2F795
:1045900086859785A089B189480F591F6A1F7B1F9F
:1045A0004D0D511D611D711D80E092E08A199B091E
:1045B00084018815990508F48C0182E00030180701
:1045C00009F067C080916C0590916D05A0916E0512
:1045D000B0916F05481759076A077B0709F459C05E
:1045E000809170079091710793010E94EC1E8823BF
:1045F00049F421C0950120593A4FC301B901A801DE
:104600000E948B05600E711E980140E050E0888585
:104610009985AA85BB85820F931FA41FB51F888724
:104620009987AA87BB87801A910A8114910409F09F
:104630005BCFA20102C04FEF5FEFCA01DF91CF91C4
:104640001F910F91FF90EF90DF90CF90BF90AF90B0
:104650009F908F907F906F905F904F903F902F90A2
:104660000895A988BA88CB88DC88E884F9840A850B
:104670001B859A0140E050E0D601C5018E199F09C3
:10468000A00BB10B281739074A075B0708F021CFA9
:1046900023CFCB01BA0140E00E94982D882309F076
:1046A000A9CFC9CFDF93CF930F92CDB7DEB7BE01AD
:1046B0006F5F7F4F41E050E00E944D22019719F05B
:1046C0002FEF3FEF03C08981282F30E0C9010F9001
:1046D000CF91DF910895EF92FF920F931F93CF93A5
:1046E000DF93EC018B81823038F1E884F9840A850C
:1046F0001B85CE010E94522397FD1EC08885998597
:10470000AA85BB854F96A11DB11D88879987AA8769
:10471000BB87F5E016950795F794E794FA95D1F7DE
:104720002E2D30E02F703070E5E0220F331FEA9518
:10473000E1F720593A4F02C020E030E0C901DF9193
:10474000CF911F910F91FF90EF900895CF93DF933A
:10475000EC018B81843071F5CE0140E050E060E0E7
:1047600070E00E943A2010C0CE010E946B23FC0131
:10477000009701F180818823A1F0853E29F08E32D7
:1047800019F0838583FF16C0288539854A855B85A6
:1047900089899A89AB89BC89281739074A075B0739
:1047A00018F381E08B83898182608983CE010E9426
:1047B000312201C080E0DF91CF9108951F93CF9304
:1047C000DF93EC01162F6A3038F4E881F98101900B
:1047D000F081E02D60E30995CE01612F4AE050E0C1
:1047E0000E948136DF91CF911F910895EF92FF9241
:1047F0000F931F938C017B016F2D669566956695CF
:104800000E94DE23D801ED91FC910190F081E02D12
:10481000C8016AE30995B701B5E076956795BA9541
:10482000E1F76F73C8010E94DE23D801ED91FC917E
:104830000190F081E02DC8016AE30995BFE1EB2208
:10484000FF24EE0CFF1CC8016E2D0E94DE231F9179
:104850000F91FF90EF900895EF92FF920F931F93A7
:104860008C017B01672F772766956454784FC801C8
:104870004AE050E00E947036D801ED91FC91019021
:10488000F081E02DC8016DE20995B70185E07695CC
:1048900067958A95E1F76F70C8010E94DE23D80101
:1048A000ED91FC910190F081E02DC8016DE2099538
:1048B000BFE1EB22C8016E2D0E94DE231F910F91F4
:1048C000FF90EF9008950F931F93CF93DF93EC0128
:1048D0008B018B81882309F040C0FB0187898031DF
:1048E00009F041C082E08B831D8A1E8A1F8A188EC0
:1048F000808D918DA0E0B0E025E0880F991FAA1F60
:10490000BB1F2A95D1F7898B9A8BAB8BBC8B13C0BD
:1049100083E08B83F801428D538D648D758D4D8BB3
:104920005E8B6F8B788F9E012F5E3F4FC8010E9478
:104930009630882391F01A8F098F81E089831C8239
:104940001D821E821F82188619861A861B861C8667
:104950001D861E861F86188A01C080E0DF91CF91D8
:104960001F910F9108958032C1F7D2CF1F93CF933B
:10497000DF93EC01142F262F30E0F90155E0EE0F04
:10498000FF1F5A95E1F7E059FA4F8385817121F0B5
:10499000842F827109F069C080916C0590916D053A
:1049A000A0916E05B0916F058C879D87AE87BF87FC
:1049B000688BF90145E0EE0FFF1F4A95E1F7E059DA
:1049C000FA4F84899589A0E0B0E0DC019927882717
:1049D0008D8B9E8BAF8BB88F228D338DA90160E0BC
:1049E00070E0482B592B6A2B7B2B4D8B5E8B6F8B8A
:1049F000788F838590E088719070009751F4848D52
:104A0000958DA68DB78D898B9A8BAB8BBC8B81E0F6
:104A10000CC0409751F59E012F5E3F4F898D9A8DB6
:104A20000E949630882309F184E08B83812F8F7058
:104A300089831C821D821E821F82188619861A860F
:104A40001B8614FF18C0CE0140E050E060E070E02B
:104A50000E946421882379F40AC049895A896B89A4
:104A60007C89CE010E943A2002C01B8280E0DF9147
:104A7000CF911F91089515FDF0CF81E0F8CFDF921F
:104A8000EF92FF920F931F93CF93DF938C01EB0173
:104A90007A01D22E898D9A8DF801928F818F838130
:104AA000882329F56115710559F521C0A70175E025
:104AB000440F551F7A95E1F760E070E0CE010E9447
:104AC0003A208823A1F0CE010E946B23FC010097BD
:104AD00071F08081882359F0853E49F08E3239F09B
:104AE0006E2D6F70C8014D2D0E94B62401C080E06C
:104AF000DF91CF911F910F91FF90EF90DF9008957C
:104B000027FFD4CFF4CFAF92BF92CF92DF92EF9234
:104B1000FF920F931F93DF93CF93CDB7DEB76B97C1
:104B20000FB6F894DEBF0FBECDBF8C0119821C8278
:104B300040E050E060E070E00E943A205E0108949E
:104B4000A11CB11C50C0C8010E946B23FC0100973E
:104B500009F464C08081882309F454C0853E09F4B7
:104B600042C08E3209F43FC0838583FD3CC0A7015B
:104B70009601F5E05695479537952795FA95D1F723
:104B80007901C501B801A90121E00E943F258823D0
:104B900009F444C08C81843021F4C5010E9483252E
:104BA00006C08A8182608A83C5010E9431228823DF
:104BB000A9F10894E11CF11CE5E0EE0CFF1CEA955C
:104BC000E1F7A70160E070E0F80180859185A2859A
:104BD000B38584179507A607B70729F0C8010E9477
:104BE0003A208823D9F0F801C084D184E284F38488
:104BF00081899289A389B489C816D906EA06FB0679
:104C000008F4A1CFF80183818250823028F0C801D6
:104C10000E94A623882311F011E001C010E0CE010C
:104C200001960E945C21812F6B960FB6F894DEBF2F
:104C30000FBECDBFCF91DF911F910F91FF90EF90ED
:104C4000DF90CF90BF90AF9008957F928F929F9208
:104C5000AF92BF92CF92DF92EF92FF920F931F938A
:104C6000DF93CF93CDB7DEB7A0970FB6F894DEBF32
:104C70000FBECDBF7C018B01742EB22E6E01089445
:104C8000C11CD11CC701B60140E250E00E944D2278
:104C9000809709F0AAC08981882309F4A6C0853EBF
:104CA00089F38E3279F38C8583FDECCFFF240AC023
:104CB000D801ED91FC910190F081E02DC80160E2F6
:104CC0000995F394FB14A0F35E010894A11CB11C98
:104CD0007501DD24FCE08F2E912C8C0E9D1EF701BA
:104CE00080818032C9F08E2D8A19883051F4D80124
:104CF000ED91FC910190F081E02DC8016EE20995E3
:104D0000D394D801ED91FC910190F081E02DC80180
:104D1000D7016C910995D3940894E11CF11CE81417
:104D2000F904E9F68C858871803151F4D801ED9150
:104D3000FC910190F081E02DC8016FE20995D394B8
:104D4000E72CFF24C70183709070892B59F40DC0A4
:104D5000D801ED91FC910190F081E02DC80160E255
:104D60000995D394BDE0BD1598F7E0FE1CC0D801AD
:104D7000ED91FC910190F081E02DC80160E2099570
:104D8000698D7A8DC8010E942C24D801ED91FC9187
:104D90000190F081E02DC80160E209956F89788D5E
:104DA000C8010E94F6238C8588718031A1F0E1FE54
:104DB00012C0D801ED91FC910190F081E02DC80165
:104DC00060E209954D8D5E8D6F8D78A1C8012AE056
:104DD00030E00E944D36C8010E9489358C8588716B
:104DE00011F082E003C081E001C080E0A0960FB620
:104DF000F894DEBF0FBECDBFCF91DF911F910F9111
:104E0000FF90EF90DF90CF90BF90AF909F908F90EA
:104E10007F9008955F926F927F928F929F92AF9250
:104E2000BF92CF92DF92EF92FF920F931F93DF9387
:104E3000CF93CDB7DEB76B970FB6F894DEBF0FBE3A
:104E4000CDBF7C013B01942E822E40E050E060E01B
:104E500070E00E943A20C92CDD2484E0C822DD24C1
:104E60005E010894A11CB11C02E0502E580C32C007
:104E7000823084F1C114D10469F1F70180859185F4
:104E8000A285B38515E0B695A795979587951A9550
:104E9000D1F78C0119821C82AC0141505040C501F0
:104EA000B70121E00E943F25882331F0C501B301FD
:104EB000492D252D0E940A27A5E0000F111FAA9554
:104EC000E1F7A80160E070E0C7010E943A20C50147
:104ED0000E945C21C701B301492D282D0E9425267F
:104EE000882331F66B960FB6F894DEBF0FBECDBFA8
:104EF000CF91DF911F910F91FF90EF90DF90CF90B6
:104F0000BF90AF909F908F907F906F905F9008952B
:104F1000462F609130027091310220E00E940A27F2
:104F20000895CF93DF93EC019C012C5F3F4F898D57
:104F30009A8D41E050E060E070E00E9402318823E9
:104F4000A1F08D899E89AF89B88D0097A105B10523
:104F500059F48C819D81AE81BF818D8B9E8BAF8BEF
:104F6000B88F89818068898381E0DF91CF9108952E
:104F70002F923F924F925F927F928F929F92AF9229
:104F8000BF92CF92DF92EF92FF920F931F93DF9326
:104F9000CF9300D000D000D0CDB7DEB76C01162F74
:104FA000072F5E834D83DC0113968C91139781301C
:104FB00009F06EC111968C9181FF6AC187C1F6011B
:104FC000418952896389748980859185A285B385D9
:104FD00084179507A607B70731F0C6010E943A204B
:104FE000882309F455C1812F902F9C0119014D8010
:104FF0005E8012C1D6015996ED91FC915A97DA0163
:10500000C90149E0B695A795979587954A95D1F737
:1050100074807A9478228FEF882E81E0982E8222F5
:105020009322772009F052C08114910409F04EC0F8
:10503000D60114964D915D916D917C911797411514
:1050400051056105710571F1CF019E012F5F3F4F41
:105050000E94C22F882309F41BC129813A814B8108
:105060005C81D6015996ED91FC915A9787898031E0
:1050700049F4283FBFEF3B07B0E04B07B0E05B07C8
:1050800048F019C0283FEFEF3E07EFEF4E07EFE083
:105090005E0788F4D60114962D933D934D935C934F
:1050A000179714C0F60185899689A789B08D009756
:1050B000A105B10531F4C6010E949127882331F47E
:1050C000E7C0F60184839583A683B78380E092E0EE
:1050D0008819990952018415950508F45C01D601D7
:1050E0005996ED91FC915A971496ED90FD900D9183
:1050F0001C9117978EEF9FEFAFEFBFEFE80EF91EF1
:105100000A1F1B1F058404C0EE0CFF1C001F111F8B
:105110000A94D2F786859785A089B189E80EF91E91
:105120000A1F1B1FE70CF11C011D111D90E0A916A1
:1051300092E0B90639F580916C0590916D05A091CA
:105140006E05B0916F058E159F05A007B10771F42C
:10515000109272078FEF9FEFAFEFBFEF80936C0558
:1051600090936D05A0936E05B0936F0580917007C5
:1051700090917107B801A70191010E94831D8823B6
:10518000B9F586C08114910419F5D60118962D91B0
:105190003D914D915C911B9751968D919D910D90F4
:1051A000BC91A02D281739074A075B0788F00E9499
:1051B0005D2D882309F46CC081E080937207E09232
:1051C0006C05F0926D0500936E0510936F0508C095
:1051D000C801B70141E00E94982D882309F458C006
:1051E000940120593A4FC901B101A5010E948B05D4
:1051F000950140E050E0F60180859185A285B38558
:10520000820F931FA41FB51F80879187A287B38742
:105210002A0C3B1C4A185B08D60118962D913D912B
:105220004D915C911B974114510409F0E3CE5196C6
:105230008D919D910D90BC91A02D82179307A4078D
:10524000B50748F4F601218B328B438B548B818157
:105250008068818311C08091660590916705892BD4
:1052600059F08D819E81892B39F0D60111968C9150
:105270001197806811968C93F601818183FF05C098
:10528000C6010E940421882319F04D815E8105C06A
:1052900081E0D6018C934FEF5FEFCA0126960FB6DF
:1052A000F894DEBF0FBECDBFCF91DF911F910F915C
:1052B000FF90EF90DF90CF90BF90AF909F908F9036
:1052C0007F905F904F903F902F90089582FD77CE12
:1052D0008ACEDF92EF92FF920F931F93CF93DF93CB
:1052E000EC0189899A89AB89BC89805E9F4FAF4167
:1052F000B04008F071C0CE010E949127882309F4C4
:105300006BC00E945D2D882309F466C0E98DFA8D7B
:10531000EC80FD800E811F818EEF9FEFAFEFBFEF1E
:10532000E80EF91E0A1F1B1F058404C0EE0CFF1CAB
:10533000001F111F0A94D2F786859785A089B1892D
:10534000E80EF91E0A1F1B1F81E080937207E0928E
:105350006C05F0926D0500936E0510936F0580E06B
:1053600092E0E0E7F5E0DF019C011D922150304022
:10537000E1F7DD24D39411C0B801A7014D0D511DF3
:10538000611D711D809170079091710720E735E0D4
:105390000E94831D882301F1D394E98DFA8D8481C5
:1053A000D81650F320E032E040E050E0058404C01D
:1053B000220F331F441F551F0A94D2F789899A89F7
:1053C000AB89BC89820F931FA41FB51F898B9A8B51
:1053D000AB8BBC8B81E001C080E0DF91CF911F914E
:1053E0000F91FF90EF90DF9008958F929F92AF9270
:1053F000BF92CF92DF92EF92FF920F931F93CF93C2
:10540000DF936C01EB01942E852EA22E898D9A8D4F
:10541000D6015A969C938E935997CB0140E050E069
:1054200060E070E00E943A20BB2438C0CE010E94A8
:105430006B23FC01009709F493C055E0169507957E
:10544000F794E7945A95D1F71E2D1F708081882319
:1054500011F0853EC9F4BB2099F420916C05309180
:105460006D0540916E0550916F05D6011C962D93E8
:105470003D934D935C931F9750961C93BB24B3941C
:105480008081882359F418C0892D982DBF014BE0E5
:1054900050E00E947E05009709F470C0E884F9840A
:1054A0000A851B8589899A89AB89BC89E816F90622
:1054B0000A071B0708F4BACFA6FE52C0A1FE50C0CF
:1054C000BB2051F0F6011089C60161E00E94E32083
:1054D000EC01009769F444C08B81823009F440C02C
:1054E000CE010E9469298823D9F110E0C0E7D5E0F8
:1054F00080E2DE011D928A95E9F7DE01292D382D23
:10550000C901FC018BE001900D928150E1F7E0911F
:105510006605F0916705309739F0BE01625F7F4FF5
:10552000CE014096099508C081E298E2998B888B5C
:1055300080E098E09F878E87888999899B8B8A8BEA
:10554000998F888F8E859F859F8B8E8B0E945D2D76
:10555000882331F0C601612F4A2D0E94B62401C074
:1055600080E0DF91CF911F910F91FF90EF90DF903E
:10557000CF90BF90AF909F908F900895A7FEEACFF5
:10558000EFCF2F923F924F925F926F927F928F92C6
:105590009F92AF92BF92CF92DF92EF92FF920F93C2
:1055A0001F93DF93CF93CDB7DEB7C654D0400FB66D
:1055B000F894DEBF0FBECDBF3C016B01DE01AE5BD8
:1055C000BF4F11965C934E9325962FAF25971C865F
:1055D0001F861FA21AA66115710509F480C0FC017F
:1055E0008381882309F07BC0FA0180818F32F1F03A
:1055F0008601ECE0EE2EF12CEC0EFD1E72E4A72EDF
:10560000B12CAC0EBD1E4E010894811C911C279636
:10561000FFAEEEAE279767E2262E312C2C0E3D1EF4
:10562000270124C01196B183A08301C0FD01A08190
:10563000B1818C918F32B1F3D60113968C9113976F
:1056400082508230A8F28E01095D1F4F59966D91EC
:105650007C915A97C8010E946324882351F63FC069
:10566000342D252D8701832F922F7C01F501808118
:105670009181B401A5010E94EC1F882329F42FC059
:105680003196D501ED93FC93D501ED91FC9180818C
:105690008F32B1F38823C9F0C701B801A40121E01A
:1056A0000E94F5298823D9F00C151D0519F0C801B1
:1056B0000E9452212796EEADFFAD2797EE16FF060A
:1056C00079F6C101322D292FCDCFC301B801A40134
:1056D00025962FAD25970E94F529182F01C010E0BF
:1056E000CE0187960E945C21CE010C960E945C211F
:1056F000812FCA5BDF4F0FB6F894DEBF0FBECDBF60
:10570000CF91DF911F910F91FF90EF90DF90CF909D
:10571000BF90AF909F908F907F906F905F904F90D1
:105720003F902F900895EF92FF920F931F93DF9376
:10573000CF93CDB7DEB7A0970FB6F894DEBF0FBEFC
:10574000CDBF8C017B01DB0113968C91823008F474
:1057500085C0C80123EC0E94F529882309F47EC086
:1057600081E0F801818384E08383C8010E94692974
:10577000882309F473C0C8010E940421882309F416
:105780006DC0C80161E00E94E320FC01009709F4AC
:1057900065C080E18387DE01119680E201900D9261
:1057A0008150E1F78EE28983FE01329620E2CE013C
:1057B0000C962193E817F907E1F7D8015996ED9176
:1057C000FC915A9755966D917D918D919C9158972A
:1057D0006250704080409040058404C0660F771F7F
:1057E000881F991F0A94D2F72685378540895189E9
:1057F000620F731F841F951F41E00E94982D88231C
:1058000069F1A0E7B5E0FE01319680E201900D92CA
:105810008150E1F78EE28A83F701838182508230E2
:1058200028F41C8E1B8E1E8A1D8A0CC0F7018589E8
:105830009689A789B08D9C8F8B8FCD01AA27BB2716
:105840009E8B8D8BA0E9B5E0FE01319680E2019040
:105850000D928150E1F70E945D2D01C080E0A0967D
:105860000FB6F894DEBF0FBECDBFCF91DF911F9171
:105870000F91FF90EF9008952F923F924F925F9279
:105880006F927F928F929F92AF92BF92CF92DF9250
:10589000EF92FF920F931F93DF93CF93CDB7DEB7B5
:1058A000C654D0400FB6F894DEBF0FBECDBF3C014A
:1058B0006B01DE01AE5BBF4F11965C934E93259654
:1058C0002FAF25971C861F861FA21AA6611571058A
:1058D00009F486C0FC018381882309F081C0A4C03B
:1058E00086018CE0E82EF12CEC0EFD1EB2E4AB2E0E
:1058F000B12CAC0EBD1E4E010894811C911C279644
:10590000FFAEEEAE2797A7E22A2E312C2C0E3D1EBD
:10591000270124C01196B183A08301C0FD01A0819D
:10592000B1818C918F32B1F3D60113968C9113977C
:1059300082508230A8F28E01095D1F4F59966D91F9
:105940007C915A97C8010E946324882351F648C06D
:10595000342D252D8701832F922F7C01F501808125
:105960009181B401A5010E94EC1F882329F438C05D
:105970003196D501ED93FC93D501ED91FC91808199
:105980008F32B1F3882329F1C701B801A40121E0C6
:105990000E94F529882361F42596BFAD2597BB2386
:1059A000F9F0C701B801A4010E94932B8823C1F02C
:1059B0000C151D0519F0C8010E9452212796EEAD65
:1059C000FFAD2797EE16FF0619F6C101322D292FDC
:1059D000C1CFC301B801A4010E94932B182F01C0AD
:1059E00010E0CE0187960E945C21CE010C960E94A9
:1059F0005C21812FCA5BDF4F0FB6F894DEBF0FBE6C
:105A0000CDBFCF91DF911F910F91FF90EF90DF906D
:105A1000CF90BF90AF909F908F907F906F905F904E
:105A20004F903F902F900895ED91FC9111978081B8
:105A30008F3209F055CF72CF8091C10085FDFCCF28
:105A40008091C00085FFF8CF6093C60081E090E0B0
:105A5000089510926B0510926A0586E492E0909387
:105A60006905809368050895DB010D900020E9F732
:105A70001197A61BB70B0496AD010E94B827089595
:105A8000DF93CF930F92CDB7DEB769830496BE0143
:105A90006F5F7F4F41E050E00E94B82720E030E088
:105AA000019711F421E030E0C9010F90CF91DF910F
:105AB000089504960E94B82708958091720788235C
:105AC00099F140916C0550916D0560916E05709152
:105AD0006F05809170079091710720E735E00E9473
